:020000020000FC
:1000000002C018951895079A0F9A66D0ACD086D082
:10001000B2D0DAD083D0C0D0FFCF000000008F93E1
:100020008FE08A95F1F78F910895F7DF6A95E9F7E8
:100030007A95D9F7089560E074E0F7DF08950F939B
:10004000079A0F9A049A0C98069A0E9A079A0F9A92
:10005000409A489A03E20093400907E0009341095F
:1000600005E5489A0F98000000000000000000938A
:1000700044090091430907FFFCCF0F9A0F9108959F
:100080000F930091430907FFFCCF00914409489862
:100090000F980F9100000000000000000093440939
:1000A0000091430907FFFCCF0F9A08950F93009129
:1000B000430907FFFCCF00914409489A0F980F911C
:1000C0000000000000000000009344090091430973
:1000D00007FFFCCF0F9A0895B2DFADDF09E3D0DF51
:1000E0009CDF09E3CDDF99DF0EE1CADF96DF0FE782
:1000F000C7DF93DF05E5C4DF90DF0CE6C1DF9BDFE0
:100100009ADF99DF98DF97DF0CE0BADF86DF06E041
:10011000B7DF83DF089501E0B3DF7FDF90DF40E1E9
:100120004F93F0E4E0E000E8ABDF77DF0191BEDF62
:1001300074DF4A95D9F74F914F93F0E4E0E100E97D
:100140009FDF6BDF0191B2DF68DF4A95D9F74F91EE
:10015000F0E4E0E200EA94DF60DF0191A7DF5DDF19
:100160004A95D9F7089590E3A0E2F0E4E0E0A19386
:100170009A95E9F70895B0E4A0E000E31EE20D933C
:1001800003950A3329F00B3729F01A95C1F7089522
:1001900001E6F5CF01E4F3CFB0E4A1E040E232E3C1
:1001A0005EE21C9111971D9311963A9509F0F9CFD3
:1001B0004C9332E309D03A95E9F7B0DFB0E4A1E01F
:1001C00032E35A9571F708952FEF1FEF1A95F1F763
:1001D0002A95D9F70895D0E4C0E00591013021F0C7
:1001E0006096023009F060960591003011F0099395
:0401F000FBCF0895A4
:00000001FF
