:020000020000FC
:1000000002C018951895079A0F9AABD035D0CBD06F
:100010003BD0359BFECF3A9551F112C0FFCF015432
:10002000657374204D6573736167652030303100EE
:10003000313233463435364537383944413042431E
:100040002AB1269526952695269500E0F0E0E0E376
:1000500000E0E20FF01F24912D9300E515E81A95BA
:10006000F1F70A95D9F72C982C9A9DD0D2CF31E38D
:10007000B0E4A0E01197E4CF90E3A0E2F0E4E0E088
:10008000A1939A95E9F70895049A249A2C982C9AAA
:1000900047984698459844982598B0E4A0E0119771
:1000A00032E30895000000008F938FE08A95F1F706
:1000B0008F910895F7DF6A95E9F77A95D9F7089552
:1000C00060E074E0F7DF08950F93079A0F9A049A9F
:1000D0000C98069A0E9A079A0F9A409A489A03E249
:1000E0000093400907E00093410905E5489A0F98FD
:1000F0000000000000000000009344090091430943
:1001000007FFFCCF0F9A0F9108950F9300914309B9
:1001100007FFFCCF0091440948980F980F91000009
:10012000000000000000009344090091430907FF0C
:10013000FCCF0F9A08950F930091430907FFFCCF5E
:1001400000914409489A0F980F91000000000000A8
:100150000000009344090091430907FFFCCF0F9A68
:100160000895B2DFADDF09E3D0DF9CDF09E3CDDF27
:1001700099DF0EE1CADF96DF0FE7C7DF93DF05E502
:10018000C4DF90DF0CE6C1DF9BDF9ADF99DF98DFE9
:1001900097DF0CE0BADF86DF06E0B7DF83DF089584
:1001A00001E0B3DF7FDF90DF40E14F93F0E4E0E078
:1001B00000E8ABDF77DF0191BEDF74DF4A95D9F746
:1001C0004F914F93F0E4E0E100E99FDF6BDF019195
:1001D000B2DF68DF4A95D9F74F91F0E4E0E200EA38
:1001E00094DF60DF0191A7DF5DDF4A95D9F70895BD
:00000001FF
