:020000020000FC
:1000000002C018951895079A0F9A1ED164D13ED157
:1000100007D0A8D03BD1359BFECF14C0FCCFFFCF7B
:10002000049A249A2C9A10E018B9609A2598B0E4A2
:10003000AFE00895313233463435364537383944E8
:10004000413042432AB12695269526952695F0E023
:10005000E4E300E0E20FF01F24912C932C982C9AFB
:10006000213469F02334B1F15AD002D00FD1D3CF6B
:1000700000E515E81A95F1F70A95D9F70895C3CF69
:10008000014552524F522C20707265737320434CBD
:1000900045415200F0E0E0E869D0F8D0359BFECF52
:1000A0002AB12695269526952695F0E0E4E300E012
:1000B000E20FF01F2491213411F3F2CF1A9504E6D8
:1000C000209F300D31960DC01A950AE0209F300D0B
:1000D000319607C02C982C9A13E020E030E0F0E431
:1000E000ECE020812F70133049F3123069F3320FA6
:1000F000353684F6343629F1303039F1432F4695C0
:10010000330F340F4FEF431B232F542F689A2A9538
:10011000E9F768985A95E9F7359994CFF5CFF0E467
:10012000EFE040E232973081319730833296308170
:1001300031973083329630813197208331964083D6
:100140000895689A35997ECFC7CF689835997ACF48
:10015000C3CF0153657474696E67203120203A3033
:1001600030302000F1E0E2E501D00895D0E4C0E0B5
:100170000591013021F06096023009F060960591FA
:10018000003011F00993FBCF0895000000008F9319
:100190008FE08A95F1F78F910895F7DF6A95E9F777
:1001A0007A95D9F7089560E074E0F7DF08950F932A
:1001B000079A0F9A049A0C98069A0E9A079A0F9A21
:1001C000409A489A03E20093400907E000934109EE
:1001D00005E5489A0F980000000000000000009319
:1001E00044090091430907FFFCCF0F9A0F9108952E
:1001F0000F930091430907FFFCCF009144094898F1
:100200000F980F91000000000000000000934409C7
:100210000091430907FFFCCF0F9A08950F930091B7
:10022000430907FFFCCF00914409489A0F980F91AA
:100230000000000000000000009344090091430901
:1002400007FFFCCF0F9A0895B2DFADDF09E3D0DFDF
:100250009CDF09E3CDDF99DF0EE1CADF96DF0FE710
:10026000C7DF93DF05E5C4DF90DF0CE6C1DF9BDF6E
:100270009ADF99DF98DF97DF0CE0BADF86DF06E0D0
:10028000B7DF83DF089501E0B3DF7FDF90DF40E178
:100290004F93F0E4E0E000E8ABDF77DF0191BEDFF1
:1002A00074DF4A95D9F74F914F93F0E4E0E100E90C
:1002B0009FDF6BDF0191B2DF68DF4A95D9F74F917D
:1002C000F0E4E0E200EA94DF60DF0191A7DF5DDFA8
:1002D0004A95D9F7089590E3A0E2F0E4E0E0A19315
:0602E0009A95E9F708956C
:00000001FF
