:020000020000FC
:1000000002C018951895079A0F9A68D100D188D127
:1000100007D0E7D085D1359BFECF19C0FCCFFFCFED
:10002000049A249A2C9A10E018B9609A6898259836
:10003000B0E4AFE030E00895313233463435364530
:100040003738394441304243B0E4AFE102C0303088
:10005000D9F72AB12695269526952695F0E0E8E36E
:1000600000E0E20FF01F24912C932C982C9A21345D
:1000700079F0233419F08FD053D1CDCF3030A1F1A6
:1000800055C000E515E81A95F1F70A95D9F70895D6
:10009000BACF034552524F522C20707265737320B1
:1000A000434C45415200B3D0F0E0E2E9A1D038D151
:1000B000359BFECF2AB12695269526952695F0E00C
:1000C000E8E300E0E20FF01F2491213409F3F2CFBE
:1000D0001A9504E6209F300D31960CC01A950AE05F
:1000E000209F300D319606C02C982C9A13E030E0FA
:1000F000F0E4ECE020812F70133051F3123071F3F3
:10010000320F3599A4CF353674F63436C9F1303014
:10011000C9F181CF1A9504E6209F500D31960CC08D
:100120001A950AE0209F500D319606C02C982C9A03
:1001300050E013E0F0E4ECE120812F70133051F334
:10014000123071F3520F432F4695330F340F032FA4
:100150004FEF431B242F152F01C0032F689A0A95D8
:10016000E9F71A95D1F7152F242F01C0242F68988D
:100170002A95E9F71A95D1F7152F359968CFEDCF64
:10018000689AB4CF6898B2CFF0E4EFE040E24083E1
:10019000F0E4EFE104C03030B9F7F0E4EFE032977B
:1001A0004081319740833296408131974083329627
:1001B00040813197208340E2319640830895015376
:1001C000657474696E67203120203A303030200029
:1001D0000254206D756C7469706C79203A3030303F
:1001E0002000F1E0EEEB04D0F1E0E0ED01D0089565
:1001F000D0E4C0E00591013021F06096023009F0B2
:1002000060960591003011F00993FBCF089590E3BB
:10021000A0E2F0E4E0E0A1939A95E9F708950000E8
:1002200000008F938FE08A95F1F78F910895F7DFA3
:100230006A95E9F77A95D9F7089560E074E0F7DFF9
:1002400008950F93079A0F9A049A0C98069A0E9A9B
:10025000079A0F9A409A489A03E20093400907E0F0
:100260000093410905E5489A0F980000000000003E
:100270000000009344090091430907FFFCCF0F9A47
:100280000F9108950F930091430907FFFCCF009150
:10029000440948980F980F910000000000000000EA
:1002A000009344090091430907FFFCCF0F9A08957A
:1002B0000F930091430907FFFCCF00914409489A2E
:1002C0000F980F9100000000000000000093440907
:1002D0000091430907FFFCCF0F9A0895B2DFADDF0D
:1002E00009E3D0DF9CDF09E3CDDF99DF0EE1CADF50
:1002F00096DF0FE7C7DF93DF05E5C4DF90DF0CE68D
:10030000C1DF9BDF9ADF99DF98DF97DF0CE0BADF70
:1003100086DF06E0B7DF83DF089501E0B3DF7FDF2C
:1003200090DF40E14F93F0E4E0E000E8ABDF77DFFF
:100330000191BEDF74DF4A95D9F74F914F93F0E4F6
:10034000E0E100E99FDF6BDF0191B2DF68DF4A95F2
:10035000D9F74F91F0E4E0E200EA94DF60DF019129
:0A036000A7DF5DDF4A95D9F7089585
:00000001FF
