:020000020000FC
:060000005DC01895189583
:1000B8000C947F00079A0F9A25D16BD145D10BD0AC
:1000C800AFD042D1809800919004026000939004D0
:1000D80078940000FECF049A10E018B9609A6898E6
:1000E800619A6198B0E4AFE003E00093E60503E1AC
:1000F8000093010A0895F8940F930FB70F93209176
:10010800890420FD0DD00F910FBF0F917894189599
:100118003132334634353645373839444130424335
:100128002AB12695269526952695F1E0E8E100E086
:10013800E20FF01F24912C9301E0009389042134ED
:1001480069F0233469F151D002D0FED0089500E55A
:1001580015E81A95F1F70A95D9F7089501E0009383
:1001680089040895014552524F522C2070726573CC
:100178007320434C45415200F1E0ECE655D0E4D001
:1001880001E00093890408951A9504E6209F300D34
:10019800319612C01A950AE0209F300D31960CC096
:1001A80013E020E030E0F0E4ECE001E000938904A3
:1001B8000F910FBF0F91789420812F70133021F386
:1001C800123041F3320F3536BCF604E60093260AA6
:1001D80000E00093270A032F0093280A00E0009309
:1001E800290A0BE00093000A0895F0E4EFE040E2EA
:1001F800329730813197308332963081319730830E
:100208003296308131972083319640830895015387
:10021800657474696E672031203A203030302000D0
:10022800F2E0E6E101D00895D0E4C0E005910130A4
:1002380021F06096023009F060960591003011F0C7
:100248000993FBCF0895000000008F938FE08A95F3
:10025800F1F78F910895F7DF6A95E9F77A95D9F75D
:10026800089560E074E0F7DF08950F93079A0F9AF6
:10027800049A0C98069A0E9A079A0F9A409A489AE6
:1002880003E20093400907E00093410905E5489A15
:100298000F9800000000000000000093440900913E
:1002A800430907FFFCCF0F9A0F9108950F93009110
:1002B800430907FFFCCF0091440948980F980F9114
:1002C8000000000000000000009344090091430969
:1002D80007FFFCCF0F9A08950F930091430907FF7A
:1002E800FCCF00914409489A0F980F910000000034
:1002F80000000000009344090091430907FFFCCF68
:100308000F9A0895B2DFADDF09E3D0DF9CDF09E380
:10031800CDDF99DF0EE1CADF96DF0FE7C7DF93DF96
:1003280005E5C4DF90DF0CE6C1DF9BDF9ADF99DFCC
:1003380098DF97DF0CE0BADF86DF06E0B7DF83DF00
:10034800089501E0B3DF7FDF90DF40E14F93F0E4F1
:10035800E0E000E8ABDF77DF0191BEDF74DF4A95AC
:10036800D9F74F914F93F0E4E0E100E99FDF6BDFAD
:100378000191B2DF68DF4A95D9F74F91F0E4E0E2E6
:1003880000EA94DF60DF0191A7DF5DDF4A95D9F7C6
:10039800089590E3A0E2F0E4E0E0A1939A95E9F7EC
:0203A8000895B6
:00000001FF
